:100000000C9434000C9451000C9451000C94510049
:100010000C9451000C9451000C9451000C9451001C
:100020000C9451000C9451000C9451000C9451000C
:100030000C9451000C9451000C9451000C945100FC
:100040000C9451000C9451000C9451000C945100EC
:100050000C9451000C9451000C9451000C945100DC
:100060000C9451000C94510011241FBECFEFD8E026
:10007000DEBFCDBF11E0A0E0B1E0ECEEF3E002C0E6
:1000800005900D92AA31B107D9F721E0AAE1B1E0BC
:1000900001C01D92A132B207E1F70E9436010C9413
:1000A000F4010C940000982F907F926095B92898E5
:1000B0002998E3EFF1E03197F1F700C00000F0E19B
:1000C0008F9FC0011124826085B92898299883EFF9
:1000D00091E00197F1F700C00000089587E893E1EF
:1000E0000197F1F700C0000082E00E94530088E20F
:1000F0000E9453008CE00E94530086E00E9453004F
:1001000081E00E94530083EF91E00197F1F700C076
:1001100000000895982F907F936095B92998E3EF98
:10012000F1E03197F1F700C00000F0E18F9FC001CE
:100130001124836085B9299883EF91E00197F1F745
:1001400000C000000895CF93DF93EC0181E00E948E
:1001500053008881882331F021960E948A0089917A
:100160008111FBCFDF91CF91089520E030E041E095
:1001700050E0CA01022E02C0880F991F0A94E2F7CC
:1001800080958BB900C000C000004C9B1FC04D9BE8
:1001900003C04E990DC020C081E090E0A901440F3A
:1001A000551F240F351F280F391FC90101960895C7
:1001B0002F5F3F4F24303105E1F680E090E0089555
:1001C0008BE090E008958CE090E0089523303105B5
:1001D000B9F380E090E0E2CF23303105A1F382E073
:1001E00090E0DCCF28EE33E0AC01429FC001439F9A
:1001F000900D529F900D112464EB70E00E94C3019A
:100200009B0128513C4F62E370E040E25EE4421BF8
:10021000530B2E9A121613063CF480E090E0000077
:10022000019682179307DCF32E98141615063CF4FA
:1002300080E090E00000019684179507D9F761509F
:10024000710939F7089583E090E02F9AE7EAF1E623
:100250003197F1F700C000002F98E7EAF1E63197F7
:10026000F1F700C00000019781F708958FEF84B97E
:100270008FE08AB980EF8BB90E946E0088E091E030
:100280000E94A30080E090E00E94F200C5E00E947E
:10029000B500009709F470C08B309105E9F4109215
:1002A0001B0110921A01ECE1F1E0DF012C2F1D92ED
:1002B0002A95E9F780E091E00E94A3008FE996E893
:1002C000A1E081509040A040E1F700C0000088E02C
:1002D00091E00E94A30050C08C309105B9F5E091E7
:1002E0001A01F0911B01E45EFE4F108265E171E09E
:1002F0008CE191E00E94EB01892B49F486E091E0CA
:100300000E94A3008AE590E00E94F20013C08FE0F3
:1003100091E00E94A3000E942301BFE926E881E04A
:10032000B15020408040E1F700C0000088E091E03B
:100330000E94A30010921B0110921A01ECE1F1E05F
:10034000DF012C2F1D922A95E9F716C020911A0182
:1003500030911B01243031057CF4A9014F5F5F4FC0
:1003600050931B0140931A01F901E45EFE4F805D3A
:1003700080838AE20E948A008FE493EC0197F1F770
:1003800000C0000084CF97FB072E16F4009407D01E
:1003900077FD09D00E94D70107FC05D03EF4909567
:1003A00081959F4F0895709561957F4F0895AA1B81
:1003B000BB1B51E107C0AA1FBB1FA617B70710F050
:1003C000A61BB70B881F991F5A95A9F78095909582
:1003D000BC01CD010895FB01DC018D9101908019D4
:0C03E0000110D9F3990B0895F894FFCF99
:1003EC00524553455400554E4C4F434B45440057D2
:0A03FC00524F4E47003132333400F7
:00000001FF
